{
  "_format": "hh-sol-artifact-1",
  "contractName": "Counter",
  "sourceName": "contracts/Counter.sol",
  "abi": [
    {
      "inputs": [],
      "name": "count",
      "outputs": [
        {
          "internalType": "uint256",
          "name": "",
          "type": "uint256"
        }
      ],
      "stateMutability": "view",
      "type": "function"
    },
    {
      "inputs": [],
      "name": "get",
      "outputs": [
        {
          "internalType": "uint256",
          "name": "",
          "type": "uint256"
        }
      ],
      "stateMutability": "view",
      "type": "function"
    },
    {
      "inputs": [],
      "name": "inc",
      "outputs": [],
      "stateMutability": "nonpayable",
      "type": "function"
    },
    {
      "inputs": [],
      "name": "incrementTo20AndDecrementTo0",
      "outputs": [],
      "stateMutability": "nonpayable",
      "type": "function"
    }
  ],
  "bytecode": "0x6080604052348015600f57600080fd5b506102ac8061001f6000396000f3fe608060405234801561001057600080fd5b506004361061004c5760003560e01c806306661abd14610051578063283120331461006f578063371303c0146100795780636d4ce63c14610083575b600080fd5b6100596100a1565b6040516100669190610155565b60405180910390f35b6100776100a7565b005b6100816100d3565b005b61008b610133565b6040516100989190610155565b60405180910390f35b60005481565b5b606460005410156100d15760016000808282546100c5919061019f565b925050819055506100a8565b565b606460005410610118576040517f08c379a000000000000000000000000000000000000000000000000000000000815260040161010f90610256565b60405180910390fd5b600160008082825461012a919061019f565b92505081905550565b60008054905090565b6000819050919050565b61014f8161013c565b82525050565b600060208201905061016a6000830184610146565b92915050565b7f4e487b7100000000000000000000000000000000000000000000000000000000600052601160045260246000fd5b60006101aa8261013c565b91506101b58361013c565b92508282019050808211156101cd576101cc610170565b5b92915050565b600082825260208201905092915050565b7f436f756e7420686173207265616368656420746865206d6178696d756d20766160008201527f6c7565206f662031303000000000000000000000000000000000000000000000602082015250565b6000610240602a836101d3565b915061024b826101e4565b604082019050919050565b6000602082019050818103600083015261026f81610233565b905091905056fea26469706673582212207a26c52ff8cb64e7f110654ee69511764f37e475003a9fb524f8a49c35bd124d64736f6c634300081a0033",
  "linkReferences": {},
  "deployedLinkReferences": {}
}