{
  "contracts/Counter.sol": {
    "Counter": {
      "abi": [
        {
          "inputs": [],
          "name": "count",
          "outputs": [
            {
              "internalType": "uint256",
              "name": "",
              "type": "uint256"
            }
          ],
          "stateMutability": "view",
          "type": "function"
        },
        {
          "inputs": [],
          "name": "get",
          "outputs": [
            {
              "internalType": "uint256",
              "name": "",
              "type": "uint256"
            }
          ],
          "stateMutability": "view",
          "type": "function"
        },
        {
          "inputs": [],
          "name": "inc",
          "outputs": [],
          "stateMutability": "nonpayable",
          "type": "function"
        },
        {
          "inputs": [],
          "name": "incrementTo20AndDecrementTo0",
          "outputs": [],
          "stateMutability": "nonpayable",
          "type": "function"
        }
      ],
      "evm": {
        "bytecode": {
          "linkReferences": {},
          "object": "6080604052348015600f57600080fd5b506102ac8061001f6000396000f3fe608060405234801561001057600080fd5b506004361061004c5760003560e01c806306661abd14610051578063283120331461006f578063371303c0146100795780636d4ce63c14610083575b600080fd5b6100596100a1565b6040516100669190610155565b60405180910390f35b6100776100a7565b005b6100816100d3565b005b61008b610133565b6040516100989190610155565b60405180910390f35b60005481565b5b606460005410156100d15760016000808282546100c5919061019f565b925050819055506100a8565b565b606460005410610118576040517f08c379a000000000000000000000000000000000000000000000000000000000815260040161010f90610256565b60405180910390fd5b600160008082825461012a919061019f565b92505081905550565b60008054905090565b6000819050919050565b61014f8161013c565b82525050565b600060208201905061016a6000830184610146565b92915050565b7f4e487b7100000000000000000000000000000000000000000000000000000000600052601160045260246000fd5b60006101aa8261013c565b91506101b58361013c565b92508282019050808211156101cd576101cc610170565b5b92915050565b600082825260208201905092915050565b7f436f756e7420686173207265616368656420746865206d6178696d756d20766160008201527f6c7565206f662031303000000000000000000000000000000000000000000000602082015250565b6000610240602a836101d3565b915061024b826101e4565b604082019050919050565b6000602082019050818103600083015261026f81610233565b905091905056fea26469706673582212207a26c52ff8cb64e7f110654ee69511764f37e475003a9fb524f8a49c35bd124d64736f6c634300081a0033",
          "opcodes": "PUSH1 0x80 PUSH1 0x40 MSTORE CALLVALUE DUP1 ISZERO PUSH1 0xF JUMPI PUSH1 0x0 DUP1 REVERT JUMPDEST POP PUSH2 0x2AC DUP1 PUSH2 0x1F PUSH1 0x0 CODECOPY PUSH1 0x0 RETURN INVALID PUSH1 0x80 PUSH1 0x40 MSTORE CALLVALUE DUP1 ISZERO PUSH2 0x10 JUMPI PUSH1 0x0 DUP1 REVERT JUMPDEST POP PUSH1 0x4 CALLDATASIZE LT PUSH2 0x4C JUMPI PUSH1 0x0 CALLDATALOAD PUSH1 0xE0 SHR DUP1 PUSH4 0x6661ABD EQ PUSH2 0x51 JUMPI DUP1 PUSH4 0x28312033 EQ PUSH2 0x6F JUMPI DUP1 PUSH4 0x371303C0 EQ PUSH2 0x79 JUMPI DUP1 PUSH4 0x6D4CE63C EQ PUSH2 0x83 JUMPI JUMPDEST PUSH1 0x0 DUP1 REVERT JUMPDEST PUSH2 0x59 PUSH2 0xA1 JUMP JUMPDEST PUSH1 0x40 MLOAD PUSH2 0x66 SWAP2 SWAP1 PUSH2 0x155 JUMP JUMPDEST PUSH1 0x40 MLOAD DUP1 SWAP2 SUB SWAP1 RETURN JUMPDEST PUSH2 0x77 PUSH2 0xA7 JUMP JUMPDEST STOP JUMPDEST PUSH2 0x81 PUSH2 0xD3 JUMP JUMPDEST STOP JUMPDEST PUSH2 0x8B PUSH2 0x133 JUMP JUMPDEST PUSH1 0x40 MLOAD PUSH2 0x98 SWAP2 SWAP1 PUSH2 0x155 JUMP JUMPDEST PUSH1 0x40 MLOAD DUP1 SWAP2 SUB SWAP1 RETURN JUMPDEST PUSH1 0x0 SLOAD DUP2 JUMP JUMPDEST JUMPDEST PUSH1 0x64 PUSH1 0x0 SLOAD LT ISZERO PUSH2 0xD1 JUMPI PUSH1 0x1 PUSH1 0x0 DUP1 DUP3 DUP3 SLOAD PUSH2 0xC5 SWAP2 SWAP1 PUSH2 0x19F JUMP JUMPDEST SWAP3 POP POP DUP2 SWAP1 SSTORE POP PUSH2 0xA8 JUMP JUMPDEST JUMP JUMPDEST PUSH1 0x64 PUSH1 0x0 SLOAD LT PUSH2 0x118 JUMPI PUSH1 0x40 MLOAD PUSH32 0x8C379A000000000000000000000000000000000000000000000000000000000 DUP2 MSTORE PUSH1 0x4 ADD PUSH2 0x10F SWAP1 PUSH2 0x256 JUMP JUMPDEST PUSH1 0x40 MLOAD DUP1 SWAP2 SUB SWAP1 REVERT JUMPDEST PUSH1 0x1 PUSH1 0x0 DUP1 DUP3 DUP3 SLOAD PUSH2 0x12A SWAP2 SWAP1 PUSH2 0x19F JUMP JUMPDEST SWAP3 POP POP DUP2 SWAP1 SSTORE POP JUMP JUMPDEST PUSH1 0x0 DUP1 SLOAD SWAP1 POP SWAP1 JUMP JUMPDEST PUSH1 0x0 DUP2 SWAP1 POP SWAP2 SWAP1 POP JUMP JUMPDEST PUSH2 0x14F DUP2 PUSH2 0x13C JUMP JUMPDEST DUP3 MSTORE POP POP JUMP JUMPDEST PUSH1 0x0 PUSH1 0x20 DUP3 ADD SWAP1 POP PUSH2 0x16A PUSH1 0x0 DUP4 ADD DUP5 PUSH2 0x146 JUMP JUMPDEST SWAP3 SWAP2 POP POP JUMP JUMPDEST PUSH32 0x4E487B7100000000000000000000000000000000000000000000000000000000 PUSH1 0x0 MSTORE PUSH1 0x11 PUSH1 0x4 MSTORE PUSH1 0x24 PUSH1 0x0 REVERT JUMPDEST PUSH1 0x0 PUSH2 0x1AA DUP3 PUSH2 0x13C JUMP JUMPDEST SWAP2 POP PUSH2 0x1B5 DUP4 PUSH2 0x13C JUMP JUMPDEST SWAP3 POP DUP3 DUP3 ADD SWAP1 POP DUP1 DUP3 GT ISZERO PUSH2 0x1CD JUMPI PUSH2 0x1CC PUSH2 0x170 JUMP JUMPDEST JUMPDEST SWAP3 SWAP2 POP POP JUMP JUMPDEST PUSH1 0x0 DUP3 DUP3 MSTORE PUSH1 0x20 DUP3 ADD SWAP1 POP SWAP3 SWAP2 POP POP JUMP JUMPDEST PUSH32 0x436F756E7420686173207265616368656420746865206D6178696D756D207661 PUSH1 0x0 DUP3 ADD MSTORE PUSH32 0x6C7565206F662031303000000000000000000000000000000000000000000000 PUSH1 0x20 DUP3 ADD MSTORE POP JUMP JUMPDEST PUSH1 0x0 PUSH2 0x240 PUSH1 0x2A DUP4 PUSH2 0x1D3 JUMP JUMPDEST SWAP2 POP PUSH2 0x24B DUP3 PUSH2 0x1E4 JUMP JUMPDEST PUSH1 0x40 DUP3 ADD SWAP1 POP SWAP2 SWAP1 POP JUMP JUMPDEST PUSH1 0x0 PUSH1 0x20 DUP3 ADD SWAP1 POP DUP2 DUP2 SUB PUSH1 0x0 DUP4 ADD MSTORE PUSH2 0x26F DUP2 PUSH2 0x233 JUMP JUMPDEST SWAP1 POP SWAP2 SWAP1 POP JUMP INVALID LOG2 PUSH5 0x6970667358 0x22 SLT KECCAK256 PUSH27 0x26C52FF8CB64E7F110654EE69511764F37E475003A9FB524F8A49C CALLDATALOAD 0xBD SLT 0x4D PUSH5 0x736F6C6343 STOP ADDMOD BYTE STOP CALLER "
        },
        "methodIdentifiers": {
          "count()": "06661abd",
          "get()": "6d4ce63c",
          "inc()": "371303c0",
          "incrementTo20AndDecrementTo0()": "28312033"
        }
      }
    }
  }
}